{
  "contractName": "Voting",
  "abi": [
    {
      "constant": false,
      "inputs": [
        {
          "name": "uid",
          "type": "uint256"
        },
        {
          "name": "title",
          "type": "string"
        },
        {
          "name": "start_time",
          "type": "uint256"
        },
        {
          "name": "end_time",
          "type": "uint256"
        }
      ],
      "name": "addElection",
      "outputs": [],
      "payable": false,
      "stateMutability": "nonpayable",
      "type": "function"
    },
    {
      "constant": false,
      "inputs": [
        {
          "name": "uid",
          "type": "uint256"
        },
        {
          "name": "name",
          "type": "string"
        },
        {
          "name": "major",
          "type": "string"
        },
        {
          "name": "electionId",
          "type": "uint256"
        }
      ],
      "name": "addCandidate",
      "outputs": [],
      "payable": false,
      "stateMutability": "nonpayable",
      "type": "function"
    },
    {
      "constant": false,
      "inputs": [
        {
          "name": "uid",
          "type": "uint256"
        },
        {
          "name": "candidateId",
          "type": "uint256"
        },
        {
          "name": "electionId",
          "type": "uint256"
        }
      ],
      "name": "vote",
      "outputs": [],
      "payable": false,
      "stateMutability": "nonpayable",
      "type": "function"
    },
    {
      "constant": true,
      "inputs": [
        {
          "name": "electionId",
          "type": "uint256"
        }
      ],
      "name": "getNumOfCandidates",
      "outputs": [
        {
          "name": "",
          "type": "uint256"
        }
      ],
      "payable": false,
      "stateMutability": "view",
      "type": "function"
    },
    {
      "constant": true,
      "inputs": [
        {
          "name": "electionId",
          "type": "uint256"
        }
      ],
      "name": "getNumOfVoters",
      "outputs": [
        {
          "name": "",
          "type": "uint256"
        }
      ],
      "payable": false,
      "stateMutability": "view",
      "type": "function"
    },
    {
      "constant": true,
      "inputs": [
        {
          "name": "electionId",
          "type": "uint256"
        }
      ],
      "name": "getElection",
      "outputs": [
        {
          "name": "",
          "type": "uint256"
        },
        {
          "name": "",
          "type": "string"
        },
        {
          "name": "",
          "type": "uint256"
        },
        {
          "name": "",
          "type": "uint256"
        },
        {
          "name": "",
          "type": "uint256"
        },
        {
          "name": "",
          "type": "uint256"
        }
      ],
      "payable": false,
      "stateMutability": "view",
      "type": "function"
    },
    {
      "constant": true,
      "inputs": [
        {
          "name": "candidateId",
          "type": "uint256"
        }
      ],
      "name": "getCandidate",
      "outputs": [
        {
          "name": "",
          "type": "uint256"
        },
        {
          "name": "",
          "type": "string"
        },
        {
          "name": "",
          "type": "string"
        },
        {
          "name": "",
          "type": "uint256"
        },
        {
          "name": "",
          "type": "uint256"
        }
      ],
      "payable": false,
      "stateMutability": "view",
      "type": "function"
    },
    {
      "constant": true,
      "inputs": [
        {
          "name": "voteId",
          "type": "uint256"
        }
      ],
      "name": "getVote",
      "outputs": [
        {
          "name": "",
          "type": "uint256"
        },
        {
          "name": "",
          "type": "uint256"
        },
        {
          "name": "",
          "type": "uint256"
        }
      ],
      "payable": false,
      "stateMutability": "view",
      "type": "function"
    },
    {
      "constant": true,
      "inputs": [],
      "name": "getLastElectionId",
      "outputs": [
        {
          "name": "",
          "type": "uint256"
        }
      ],
      "payable": false,
      "stateMutability": "view",
      "type": "function"
    },
    {
      "constant": true,
      "inputs": [],
      "name": "getLastVoterId",
      "outputs": [
        {
          "name": "",
          "type": "uint256"
        }
      ],
      "payable": false,
      "stateMutability": "view",
      "type": "function"
    },
    {
      "constant": true,
      "inputs": [],
      "name": "getLastCandidateId",
      "outputs": [
        {
          "name": "",
          "type": "uint256"
        }
      ],
      "payable": false,
      "stateMutability": "view",
      "type": "function"
    },
    {
      "constant": true,
      "inputs": [],
      "name": "getLastElection",
      "outputs": [
        {
          "name": "",
          "type": "uint256"
        },
        {
          "name": "",
          "type": "string"
        },
        {
          "name": "",
          "type": "uint256"
        },
        {
          "name": "",
          "type": "uint256"
        },
        {
          "name": "",
          "type": "uint256"
        },
        {
          "name": "",
          "type": "uint256"
        }
      ],
      "payable": false,
      "stateMutability": "view",
      "type": "function"
    },
    {
      "constant": true,
      "inputs": [],
      "name": "getLastCandidate",
      "outputs": [
        {
          "name": "",
          "type": "uint256"
        },
        {
          "name": "",
          "type": "string"
        },
        {
          "name": "",
          "type": "string"
        },
        {
          "name": "",
          "type": "uint256"
        },
        {
          "name": "",
          "type": "uint256"
        }
      ],
      "payable": false,
      "stateMutability": "view",
      "type": "function"
    },
    {
      "constant": true,
      "inputs": [],
      "name": "getLastVoter",
      "outputs": [
        {
          "name": "",
          "type": "uint256"
        },
        {
          "name": "",
          "type": "uint256"
        },
        {
          "name": "",
          "type": "uint256"
        }
      ],
      "payable": false,
      "stateMutability": "view",
      "type": "function"
    }
  ],
  "bytecode": "0x608060405234801561001057600080fd5b50611299806100206000396000f3006080604052600436106100d0576000357c0100000000000000000000000000000000000000000000000000000000900463ffffffff1680631b1e77fe146100d55780632452cf4e1461015c57806335b8e820146101875780635a55c1f0146102ae57806377813f4f146102fd5780638a6655d61461033e5780638fab47df1461037f578063980ff7af146104425780639d71077714610483578063c7ec83671461054c578063cf269b5f14610577578063dcce764d1461062a578063dee303b614610663578063eb06650a1461068e575b600080fd5b3480156100e157600080fd5b5061015a60048036038101908080359060200190929190803590602001908201803590602001908080601f0160208091040260200160405190810160405280939291908181526020018383808284378201915050505050509192919290803590602001909291908035906020019092919050505061079f565b005b34801561016857600080fd5b50610171610869565b6040518082815260200191505060405180910390f35b34801561019357600080fd5b506101b260048036038101908080359060200190929190505050610873565b604051808681526020018060200180602001858152602001848152602001838103835287818151815260200191508051906020019080838360005b838110156102085780820151818401526020810190506101ed565b50505050905090810190601f1680156102355780820380516001836020036101000a031916815260200191505b50838103825286818151815260200191508051906020019080838360005b8381101561026e578082015181840152602081019050610253565b50505050905090810190601f16801561029b5780820380516001836020036101000a031916815260200191505b5097505050505050505060405180910390f35b3480156102ba57600080fd5b506102d960048036038101908080359060200190929190505050610a37565b60405180848152602001838152602001828152602001935050505060405180910390f35b34801561030957600080fd5b5061032860048036038101908080359060200190929190505050610a8e565b6040518082815260200191505060405180910390f35b34801561034a57600080fd5b5061037d600480360381019080803590602001909291908035906020019092919080359060200190929190505050610aad565b005b34801561038b57600080fd5b5061044060048036038101908080359060200190929190803590602001908201803590602001908080601f0160208091040260200160405190810160405280939291908181526020018383808284378201915050505050509192919290803590602001908201803590602001908080601f016020809104026020016040519081016040528093929190818152602001838380828437820191505050505050919291929080359060200190929190505050610be8565b005b34801561044e57600080fd5b5061046d60048036038101908080359060200190929190505050610ce7565b6040518082815260200191505060405180910390f35b34801561048f57600080fd5b506104ae60048036038101908080359060200190929190505050610d06565b6040518087815260200180602001868152602001858152602001848152602001838152602001828103825287818151815260200191508051906020019080838360005b8381101561050c5780820151818401526020810190506104f1565b50505050905090810190601f1680156105395780820380516001836020036101000a031916815260200191505b5097505050505050505060405180910390f35b34801561055857600080fd5b50610561610e44565b6040518082815260200191505060405180910390f35b34801561058357600080fd5b5061058c610e4e565b6040518087815260200180602001868152602001858152602001848152602001838152602001828103825287818151815260200191508051906020019080838360005b838110156105ea5780820151818401526020810190506105cf565b50505050905090810190601f1680156106175780820380516001836020036101000a031916815260200191505b5097505050505050505060405180910390f35b34801561063657600080fd5b5061063f610f97565b60405180848152602001838152602001828152602001935050505060405180910390f35b34801561066f57600080fd5b50610678610ff2565b6040518082815260200191505060405180910390f35b34801561069a57600080fd5b506106a3610ffc565b604051808681526020018060200180602001858152602001848152602001838103835287818151815260200191508051906020019080838360005b838110156106f95780820151818401526020810190506106de565b50505050905090810190601f1680156107265780820380516001836020036101000a031916815260200191505b50838103825286818151815260200191508051906020019080838360005b8381101561075f578082015181840152602081019050610744565b50505050905090810190601f16801561078c5780820380516001836020036101000a031916815260200191505b5097505050505050505060405180910390f35b60e0604051908101604052808581526020018481526020018381526020018281526020016001151581526020016000815260200160008152506000808681526020019081526020016000206000820151816000015560208201518160010190805190602001906108109291906111c8565b50604082015181600201556060820151816003015560808201518160040160006101000a81548160ff02191690831515021790555060a0820151816005015560c082015181600601559050508360038190555050505050565b6000600454905090565b600060608060008060016000878152602001908152602001600020600001546001600088815260200190815260200160002060010160016000898152602001908152602001600020600201600160008a815260200190815260200160002060040154600160008b815260200190815260200160002060050154838054600181600116156101000203166002900480601f0160208091040260200160405190810160405280929190818152602001828054600181600116156101000203166002900480156109815780601f1061095657610100808354040283529160200191610981565b820191906000526020600020905b81548152906001019060200180831161096457829003601f168201915b50505050509350828054600181600116156101000203166002900480601f016020809104026020016040519081016040528092919081815260200182805460018160011615610100020316600290048015610a1d5780601f106109f257610100808354040283529160200191610a1d565b820191906000526020600020905b815481529060010190602001808311610a0057829003601f168201915b505050505092509450945094509450945091939590929450565b60008060006002600085815260200190815260200160002060000154600260008681526020019081526020016000206001015460026000878152602001908152602001600020600201549250925092509193909250565b6000806000838152602001908152602001600020600501549050919050565b6001151560008083815260200190815260200160002060040160009054906101000a900460ff161515148015610b0a5750600115156001600084815260200190815260200160002060030160009054906101000a900460ff161515145b15610be357606060405190810160405280848152602001838152602001828152506002600085815260200190815260200160002060008201518160000155602082015181600101556040820151816002015590505060008082815260200190815260200160002060050160008154809291906001019190505560008083815260200190815260200160002060050181905550600160008381526020019081526020016000206005016000815480929190600101919050556001600084815260200190815260200160002060050181905550826004819055505b505050565b60c060405190810160405280858152602001848152602001838152602001600115158152602001828152602001600081525060016000868152602001908152602001600020600082015181600001556020820151816001019080519060200190610c539291906111c8565b506040820151816002019080519060200190610c709291906111c8565b5060608201518160030160006101000a81548160ff0219169083151502179055506080820151816004015560a0820151816005015590505060016000808381526020019081526020016000206006015401600080838152602001908152602001600020600601819055508360058190555050505050565b6000806000838152602001908152602001600020600601549050919050565b60006060600080600080600080888152602001908152602001600020600001546000808981526020019081526020016000206001016000808a8152602001908152602001600020600201546000808b8152602001908152602001600020600301546000808c8152602001908152602001600020600501546000808d815260200190815260200160002060060154848054600181600116156101000203166002900480601f016020809104026020016040519081016040528092919081815260200182805460018160011615610100020316600290048015610e285780601f10610dfd57610100808354040283529160200191610e28565b820191906000526020600020905b815481529060010190602001808311610e0b57829003601f168201915b5050505050945095509550955095509550955091939550919395565b6000600354905090565b600060606000806000806000806003548152602001908152602001600020600001546000806003548152602001908152602001600020600101600080600354815260200190815260200160002060020154600080600354815260200190815260200160002060030154600080600354815260200190815260200160002060050154600080600354815260200190815260200160002060060154848054600181600116156101000203166002900480601f016020809104026020016040519081016040528092919081815260200182805460018160011615610100020316600290048015610f7c5780601f10610f5157610100808354040283529160200191610f7c565b820191906000526020600020905b815481529060010190602001808311610f5f57829003601f168201915b50505050509450955095509550955095509550909192939495565b6000806000600260006004548152602001908152602001600020600001546002600060045481526020019081526020016000206001015460026000600454815260200190815260200160002060020154925092509250909192565b6000600554905090565b6000606080600080600160006005548152602001908152602001600020600001546001600060055481526020019081526020016000206001016001600060055481526020019081526020016000206002016001600060055481526020019081526020016000206004015460016000600554815260200190815260200160002060050154838054600181600116156101000203166002900480601f0160208091040260200160405190810160405280929190818152602001828054600181600116156101000203166002900480156111145780601f106110e957610100808354040283529160200191611114565b820191906000526020600020905b8154815290600101906020018083116110f757829003601f168201915b50505050509350828054600181600116156101000203166002900480601f0160208091040260200160405190810160405280929190818152602001828054600181600116156101000203166002900480156111b05780601f10611185576101008083540402835291602001916111b0565b820191906000526020600020905b81548152906001019060200180831161119357829003601f168201915b50505050509250945094509450945094509091929394565b828054600181600116156101000203166002900490600052602060002090601f016020900481019282601f1061120957805160ff1916838001178555611237565b82800160010185558215611237579182015b8281111561123657825182559160200191906001019061121b565b5b5090506112449190611248565b5090565b61126a91905b8082111561126657600081600090555060010161124e565b5090565b905600a165627a7a72305820139fdb87b66383b645d48267b66a61819d14b53e2f61ad031b32934b81c55ad60029",
  "source": "pragma solidity ^0.4.24;\n\n/**\n * The contractName contract does this and that...\n */\ncontract Voting {\n\n\tstruct Election {\n\t\tuint uid;\n\t\tstring title;\n\t\tuint start_time;\n\t\tuint end_time;\n\t\tbool doesExist;\n\t\tuint totalVotesCount;\n\t\tuint candidatesNum;\n\t}\n\n\tstruct Voter {\n\t\tuint uid;\n\t\tuint candidateID;\n\t\tuint electionID;\n\t}\n\n\tstruct Candidate {\n\t\tuint uid;\n\t\tstring name;\n\t\tstring major;\n\t\tbool doesExist;\n\t\tuint electionID;\n\t\tuint theTotalVotes;\n\t}\n\n\tmapping(uint => Election) elections;\n\tmapping(uint => Candidate) candidates;\n\tmapping(uint => Voter) voters;\n\n\tuint lastElectionId;\n\tuint lastVoterId;\n\tuint lastCandidateId;\n\n\n\tfunction addElection(uint uid, string title, uint start_time, uint end_time) public {\n\t\telections[uid] = Election(uid,title,start_time,end_time,true,0,0);\n\t\tlastElectionId = uid;\n\t}\n\n\tfunction addCandidate(uint uid, string name, string major, uint electionId) public {\n\t\tcandidates[uid] = Candidate(uid, name,major,true,electionId,0);\n\t\telections[electionId].candidatesNum = elections[electionId].candidatesNum+1;\n\t\tlastCandidateId = uid;\n\t}\n\n\tfunction vote(uint uid, uint candidateId , uint electionId) public {\n\t\tif(elections[electionId].doesExist == true && candidates[candidateId].doesExist ==true) {\n\t\t\tvoters[uid] = Voter(uid,candidateId, electionId);\n\t\t\telections[electionId].totalVotesCount = elections[electionId].totalVotesCount++;\n\t\t\tcandidates[candidateId].theTotalVotes = candidates[candidateId].theTotalVotes++;\n\t\t\tlastVoterId = uid;\n\t\t}\n\t}\n\n\tfunction getNumOfCandidates(uint electionId) public view returns(uint) {\n\t\treturn elections[electionId].candidatesNum;\n\t}\n\n\tfunction getNumOfVoters(uint electionId) public view returns(uint) {\n\t\treturn elections[electionId].totalVotesCount;\n\t}\n\n\tfunction getElection(uint electionId) public view returns(uint, string, uint, uint, uint, uint) {\n\t\treturn (elections[electionId].uid, elections[electionId].title, elections[electionId].start_time, elections[electionId].end_time, elections[electionId].totalVotesCount, elections[electionId].candidatesNum);\n\t}\n\n\tfunction getCandidate(uint candidateId) public view returns(uint, string, string, uint, uint) {\n\t\treturn (candidates[candidateId].uid, candidates[candidateId].name, candidates[candidateId].major, candidates[candidateId].electionID,candidates[candidateId].theTotalVotes);\n\t}\n\n\tfunction getVote(uint voteId) public view returns(uint, uint, uint) {\n\t\treturn (voters[voteId].uid, voters[voteId].candidateID, voters[voteId].electionID);\n\t}\n\n\tfunction getLastElectionId() public view returns(uint) {\n\t\treturn lastElectionId;\n\t}\n\n\tfunction getLastVoterId() public view returns(uint) {\n\t\treturn lastVoterId;\n\t}\n\n\tfunction getLastCandidateId() public view returns(uint) {\n\t\treturn lastCandidateId;\n\t}\n\n\tfunction getLastElection() public view returns(uint, string, uint, uint, uint, uint) {\n\t\treturn (elections[lastElectionId].uid, elections[lastElectionId].title, elections[lastElectionId].start_time, elections[lastElectionId].end_time, elections[lastElectionId].totalVotesCount, elections[lastElectionId].candidatesNum);\n\t}\n\n\tfunction getLastCandidate() public view returns(uint, string, string, uint, uint) {\n\t\treturn (candidates[lastCandidateId].uid, candidates[lastCandidateId].name, candidates[lastCandidateId].major, candidates[lastCandidateId].electionID,candidates[lastCandidateId].theTotalVotes);\n\t}\n\n\tfunction getLastVoter() public view returns(uint, uint, uint) {\n\t\treturn (voters[lastVoterId].uid, voters[lastVoterId].candidateID, voters[lastVoterId].electionID);\n\t}\n}\n",
  "sourcePath": "/Users/jeonjihun/Desktop/project/voting/contracts/Voting.sol",
  "compiler": {
    "name": "solc",
    "version": "0.4.24+commit.e67f0147.Emscripten.clang"
  },
  "schemaVersion": "2.0.0",
  "updatedAt": "2018-12-07T20:29:48.707Z"
}